:100000000C9426010C9443010C9443010C9443017D
:100010000C9443010C9443010C9443010C94430150
:100020000C9443010C9443010C9443010C94C302BF
:100030000C94E4020C9443010C9443010C9443018E
:100040000C9443010C9443010C9443010C94430120
:100050000C9443010C9443010C9443010C94430110
:100060000C9443010C9443010C9443010C94430100
:100070000C94430100010000B3001200020000C50F
:10008000002200210000D7000900220000E700F450
:1000900000030000DB010401030904DF014802033F
:1000A000090429022001C1320000002126010700B5
:1000B0000000001201100100000040C410C18200C5
:1000C000010102000109022200010100803209043D
:1000D0000000010300000009211101000122F400C9
:1000E0000705810340000A05010905A101850115E5
:1000F00000250135004501750195200509190129E3
:1001000020810205012507463B0175049501651410
:100110000939814265009501810116000026FFFF23
:1001200036000046FFFF093009310932093309342E
:1001300009357510950681020600FF09200921097D
:10014000220923092409250926092709280929093B
:100150002A092B7508950C81020A21269508B102FF
:10016000C005010905A101850215002501350045DD
:100170000175019520050919012920810205012534
:1001800007463B01750495016514093981426500F4
:100190009501810116000026FFFF36000046FFFF93
:1001A00009300931093209330934093575109506CA
:1001B00081020600FF0920092109220923092409D7
:1001C000250926092709280929092A092B750895CF
:1001D0000C81020A21269508B102C00403090448D3
:1001E000034F00700065006E00430068006F0072EE
:1001F00000640020005800200052004D00490054C7
:100200000020004500780065007200740069006FEE
:10021000006E002000470061006D00650073002043
:10022000004C00610062000000200355006E006F6A
:10023000004A006F00790020004A006F00790073C7
:10024000007400690063006B0000000011241FBEF1
:10025000CFEFD2E0DEBFCDBF11E0A0E0B1E0EEEA2B
:10026000F9E002C005900D92A230B107D9F711E074
:10027000A2E0B1E001C01D92A232B107E1F70E94F5
:1002800012040C94D5040C94000008959093CD00B2
:100290008093CC0088E18093C90086E08093CA00F7
:1002A000089508C0EFE9FFE03197F1F700C00000C2
:1002B000019739F02091C80027FFF4CF8091CE003C
:1002C000089580E008959091C80095FFFCCF809339
:1002D000CE00089502C08091CE008091C80087FDB5
:1002E000FACF08959AB121E030E002C0220F331F07
:1002F0008A95E2F7922B9AB98BB1209528232BB9D6
:1003000008959AB121E030E002C0220F331F8A9590
:10031000E2F7822F809589238AB98BB1822B8BB922
:1003200008951F93CF93DF93182F0E94630189E1F3
:1003300090E00E945101C82FD0E0812F8F5F0E9472
:10034000630189E190E00E945101382F20E0C20F43
:10035000D31FCE01DF91CF911F9108958091E800C6
:1003600080FFFCCF089580EA8093D80086E089BDA5
:1003700080E090E00BC0EFE9FFE03197F1F700C0BB
:1003800000000196F3E0883E9F0781F009B400FE6B
:10039000F2CF80E88093D8001092E0001092020122
:1003A0008CE08093E200789480E0089581E00895E5
:1003B00080910201089580910201882351F18FB745
:1003C000F89491E09093E9009091E4009E5C21E024
:1003D0003091E80035FF04C0E4E0F1E09EE10EC09A
:1003E0008FBF809102018823A1F08091E4008917DA
:1003F00091F08FB7F8942093E900EACF21912093F0
:10040000F1009150D9F79AE39093E8008FBF80E014
:1004100008958FEF08958FEF08958F929F92AF9276
:10042000BF92CF92DF92EF92FF920F931F93CF93E1
:10043000DF93CDB7DEB761970FB6F894DEBF0FBE7E
:10044000CDBF89829A82AB82BC829C2DCD82DE8216
:10045000EF82F88609871A872B873C874D875E874E
:100460006F87788B898B88A18093040149815A8199
:100470006B817C81409305015093060160930701D5
:100480007093080188E0809309018C2D8170C1FE72
:100490000DC0882311F087E003C0C2FE04C081E0D4
:1004A0008093090119C01092090116C0C3FE0AC049
:1004B000882311F085E009C0C2FE02C083E005C0B8
:1004C00084E003C0882321F086E08093090158C0AE
:1004D000C2FE56C082E0F9CF8FEF8093160192FFE3
:1004E00004C08FEF8093170102C01092170193FF91
:1004F00004C08FEF8093180102C01092180190FF82
:1005000004C08FEF8093190102C0109219018E81EF
:100510009F8190930B0180930A0188859985909320
:100520000D0180930C018A859B8590930F01809328
:100530000E018C859D8590931101809310018E850D
:100540009F859093130180931201888999899093D4
:100550001501809314010E94DB0161960FB6F89497
:10056000DEBF0FBECDBFDF91CF911F910F91FF90E6
:10057000EF90DF90CF90BF90AF909F908F900895B5
:1005800010921601ACCF1F920F920FB60F9211244A
:100590008F938091E1001092E10083FF0FC01092D1
:1005A000E90081E08093EB001092EC0082E38093FD
:1005B000ED0088E08093F000109202018F910F907F
:1005C0000FBE0F901F9018951F920F920FB60F92AB
:1005D00011241F932F933F934F935F936F937F93B8
:1005E0008F939F93AF93BF93CF93DF93EF93FF933B
:1005F0001092E9008091E80083FFFDC03091F10086
:100600002091F100C091F100D0E04091F100942FD1
:1006100080E0C82BD92B6091F10070E04091F1008F
:10062000942F80E0682B792BA091F1001091F100BC
:1006300082EF8093E800263009F051C047E024E7BC
:1006400030E0F901859194918C179D0739F4F901F7
:100650003296859194918617970729F0295F3F4F2D
:10066000415079F7C8C0F901349685919491AC0155
:100670002A5F3F4FF9012491B0E0912F80E0A82B31
:10068000B92BAF3FB10519F010F0AFEFB0E0A217F2
:1006900008F42A2FAEEF8091E80090E0BC0165706D
:1006A000707061157105B9F382FDA8C0322F213435
:1006B00008F030E4CA01632F06C0FC010196E49102
:1006C000E093F10061506623C1F7430F511D231BD6
:1006D000A093E8002223F9F63034E9F28FC02530E8
:1006E00049F48EEF8093E8000E94AE01C068C09389
:1006F000E30084C0293069F5332309F03CC0C0937E
:1007000002018EEF8093E80041E085EA90E001C0AD
:10071000C9014093E9009C012F5F3F4FFC015491B8
:100720005093EB00552361F0F90124912093EC00E4
:100730009C012D5F3F4F0296FC0184918093ED0058
:100740004F5F453029F78EE18093EA001092EA006E
:1007500055C0283039F4303871F40E94AE018091D0
:1007600002012DC0222339F40E94AE011092F10043
:100770001092F1003CC06115710509F03CC0313A9E
:1007800009F5213079F40E94AE0180E090E0FC018F
:10079000E555FF4FE491E093F10001968830910513
:1007A000B1F725C0223029F40E94AE0180910301E7
:1007B00006C0233001F50E94AE01809100018093B4
:1007C000F10015C03132B9F4293041F48091E800CC
:1007D00082FFFCCF8BEF8093E80009C02A3019F428
:1007E000D093030104C02B3031F4C09300018EEF8D
:1007F0008093E80003C081E28093EB00FF91EF91CA
:10080000DF91CF91BF91AF919F918F917F916F9128
:100810005F914F913F912F911F910F900FBE0F90BD
:100820001F901895CF93DF93CDB7DEB762970FB6C1
:10083000F894DEBF0FBECDBFA89584B7877F84BF75
:1008400088E10FB6F89480936000109260000FBEAC
:1008500089E190E00E94460180E880936100109257
:1008600061000E94B30118C085E00E9472018FEF01
:1008700090E7A2E081509040A040E1F700C0000066
:1008800085E00E9481018FEF90E7A2E081509040C7
:10089000A040E1F700C000000E94D801882321F3A6
:1008A0008FEF99E6A8E181509040A040E1F700C0A9
:1008B000000085E00E94720182E0782EAFE3BFE184
:1008C0001197F1F700C000000E946A018E010F5FCE
:1008D0001F4F24E0822F2A8B0E94630189E190E060
:1008E0000E945101F80181938F012A892F5F2830DE
:1008F00089F788E00E94630189E190E00E9451013C
:10090000382F329531709D819C7F282F229522703F
:10091000932B922B282F22952470937F881F882752
:10092000881F880F880F880F922B982B9D8385E155
:1009300090E00E9491019F838E8387E190E00E9466
:1009400091019987888789E190E00E9491019B87B6
:100950008A878BE190E00E9491019D878C878DE1D1
:1009600090E00E9491019F878E878FE190E00E9426
:100970009101998B888B0F92ADB7BEB711967C927F
:1009800089809A80AB80BC80CD80DE80EF80F88447
:1009900009851A852B853C854D855E856F8578890F
:0E09A00089890E940D020F9089CFF894FFCF35
:0209AE00010046
:00000001FF
